{
  "_format": "hh-sol-artifact-1",
  "contractName": "Vendor",
  "sourceName": "contracts/Vendor.sol",
  "abi": [
    {
      "inputs": [
        {
          "internalType": "address",
          "name": "tokenAddress",
          "type": "address"
        }
      ],
      "stateMutability": "nonpayable",
      "type": "constructor"
    },
    {
      "anonymous": false,
      "inputs": [
        {
          "indexed": false,
          "internalType": "address",
          "name": "buyer",
          "type": "address"
        },
        {
          "indexed": false,
          "internalType": "uint256",
          "name": "amountOfETH",
          "type": "uint256"
        },
        {
          "indexed": false,
          "internalType": "uint256",
          "name": "amountOfTokens",
          "type": "uint256"
        }
      ],
      "name": "BuyTokens",
      "type": "event"
    },
    {
      "anonymous": false,
      "inputs": [
        {
          "indexed": true,
          "internalType": "address",
          "name": "previousOwner",
          "type": "address"
        },
        {
          "indexed": true,
          "internalType": "address",
          "name": "newOwner",
          "type": "address"
        }
      ],
      "name": "OwnershipTransferred",
      "type": "event"
    },
    {
      "anonymous": false,
      "inputs": [
        {
          "indexed": false,
          "internalType": "address",
          "name": "seller",
          "type": "address"
        },
        {
          "indexed": false,
          "internalType": "uint256",
          "name": "amountOfETH",
          "type": "uint256"
        },
        {
          "indexed": false,
          "internalType": "uint256",
          "name": "amountOfTokens",
          "type": "uint256"
        }
      ],
      "name": "SellTokens",
      "type": "event"
    },
    {
      "inputs": [],
      "name": "buyTokens",
      "outputs": [],
      "stateMutability": "payable",
      "type": "function"
    },
    {
      "inputs": [],
      "name": "owner",
      "outputs": [
        {
          "internalType": "address",
          "name": "",
          "type": "address"
        }
      ],
      "stateMutability": "view",
      "type": "function"
    },
    {
      "inputs": [],
      "name": "renounceOwnership",
      "outputs": [],
      "stateMutability": "nonpayable",
      "type": "function"
    },
    {
      "inputs": [
        {
          "internalType": "uint256",
          "name": "_amount",
          "type": "uint256"
        }
      ],
      "name": "sellTokens",
      "outputs": [],
      "stateMutability": "payable",
      "type": "function"
    },
    {
      "inputs": [],
      "name": "tokensPerEth",
      "outputs": [
        {
          "internalType": "uint256",
          "name": "",
          "type": "uint256"
        }
      ],
      "stateMutability": "view",
      "type": "function"
    },
    {
      "inputs": [
        {
          "internalType": "address",
          "name": "newOwner",
          "type": "address"
        }
      ],
      "name": "transferOwnership",
      "outputs": [],
      "stateMutability": "nonpayable",
      "type": "function"
    },
    {
      "inputs": [],
      "name": "withdraw",
      "outputs": [],
      "stateMutability": "nonpayable",
      "type": "function"
    },
    {
      "inputs": [],
      "name": "yourToken",
      "outputs": [
        {
          "internalType": "contract YourToken",
          "name": "",
          "type": "address"
        }
      ],
      "stateMutability": "view",
      "type": "function"
    }
  ],
  "bytecode": "0x608060405234801561001057600080fd5b50604051610bda380380610bda83398101604081905261002f916100ad565b6100383361005d565b600180546001600160a01b0319166001600160a01b03929092169190911790556100db565b600080546001600160a01b038381166001600160a01b0319831681178455604051919092169283917f8be0079c531659141344cd1fd0a4f28419497f9722a3daafe3b4186f6b6457e09190a35050565b6000602082840312156100be578081fd5b81516001600160a01b03811681146100d4578182fd5b9392505050565b610af0806100ea6000396000f3fe60806040526004361061007b5760003560e01c80638da5cb5b1161004e5780638da5cb5b146100fc578063cbdd69b51461011a578063d0febe4c1461013d578063f2fde38b1461014557600080fd5b80633ccfd60b146100805780636c11bcd314610097578063715018a6146100aa5780637879e84b146100bf575b600080fd5b34801561008c57600080fd5b50610095610165565b005b6100956100a5366004610a0a565b6102f1565b3480156100b657600080fd5b50610095610648565b3480156100cb57600080fd5b506001546100df906001600160a01b031681565b6040516001600160a01b0390911681526020015b60405180910390f35b34801561010857600080fd5b506000546001600160a01b03166100df565b34801561012657600080fd5b5061012f606481565b6040519081526020016100f3565b61009561067e565b34801561015157600080fd5b506100956101603660046109bc565b6108d1565b6000546001600160a01b031633146101985760405162461bcd60e51b815260040161018f90610a3a565b60405180910390fd5b6001546040516370a0823160e01b81523060048201526000916001600160a01b0316906370a082319060240160206040518083038186803b1580156101dc57600080fd5b505afa1580156101f0573d6000803e3d6000fd5b505050506040513d601f19601f820116820180604052508101906102149190610a22565b60015460405163a9059cbb60e01b8152336004820152602481018390529192506000916001600160a01b039091169063a9059cbb90604401602060405180830381600087803b15801561026657600080fd5b505af115801561027a573d6000803e3d6000fd5b505050506040513d601f19601f8201168201806040525081019061029e91906109ea565b9050806102ed5760405162461bcd60e51b815260206004820152601a60248201527f7769746864726177207761736e2774207375636365737366756c000000000000604482015260640161018f565b5050565b600081116103385760405162461bcd60e51b81526020600482015260146024820152733732b2b2103a379039b2b6361029a7a6a297171760611b604482015260640161018f565b6000610345606483610a6f565b60015460405163095ea7b360e01b8152306004820181905234602483015292935033916000916001600160a01b039091169063095ea7b390604401602060405180830381600087803b15801561039a57600080fd5b505af11580156103ae573d6000803e3d6000fd5b505050506040513d601f19601f820116820180604052508101906103d291906109ea565b90508061041a5760405162461bcd60e51b8152602060048201526016602482015275151bdad95b881dd85cc81b9bdd08185c1c1c9bdd995960521b604482015260640161018f565b600154604051636eb1769f60e11b81526001600160a01b0384811660048301528581166024830152600092169063dd62ed3e9060440160206040518083038186803b15801561046857600080fd5b505afa15801561047c573d6000803e3d6000fd5b505050506040513d601f19601f820116820180604052508101906104a09190610a22565b9050808611156104e95760405162461bcd60e51b8152602060048201526014602482015273616c6c6f77616e636520697320746f6f206c6f7760601b604482015260640161018f565b6001546040516323b872dd60e01b81526001600160a01b03858116600483015286811660248301526044820189905260009216906323b872dd90606401602060405180830381600087803b15801561054057600080fd5b505af1158015610554573d6000803e3d6000fd5b505050506040513d601f19601f8201168201806040525081019061057891906109ea565b6040519091506001600160a01b0385169087156108fc029088906000818181858888f193505050501580156105b1573d6000803e3d6000fd5b50806105f55760405162461bcd60e51b81526020600482015260136024820152721d1c985b9cd9995c919c9bdb4819985a5b1959606a1b604482015260640161018f565b604080516001600160a01b0386168152602081018890529081018890527fa24838acd4af5195a2396965dae5abf54e84e8c19f5698bb966ae64e29994ee59060600160405180910390a150505050505050565b6000546001600160a01b031633146106725760405162461bcd60e51b815260040161018f90610a3a565b61067c600061096c565b565b34806106cc5760405162461bcd60e51b815260206004820152601760248201527f596f75206e65656420746f2062757920736f6d652e2e2e000000000000000000604482015260640161018f565b60006106d9826064610a8f565b6001546040516370a0823160e01b81523060048201529192506000916001600160a01b03909116906370a082319060240160206040518083038186803b15801561072257600080fd5b505afa158015610736573d6000803e3d6000fd5b505050506040513d601f19601f8201168201806040525081019061075a9190610a22565b9050818110156107b65760405162461bcd60e51b815260206004820152602160248201527f56656e646f7220646f65736e2774206861766520656e6f75676820546f6b656e6044820152607360f81b606482015260840161018f565b60015460405163a9059cbb60e01b8152336004820152602481018490526000916001600160a01b03169063a9059cbb90604401602060405180830381600087803b15801561080357600080fd5b505af1158015610817573d6000803e3d6000fd5b505050506040513d601f19601f8201168201806040525081019061083b91906109ea565b90508061088a5760405162461bcd60e51b815260206004820152601b60248201527f507572636861736520776173206e6f74207375636365737366756c0000000000604482015260640161018f565b60408051338152602081018690529081018490527f0a37b72bb67eee30e09084cf386f8a17817c57f620c3ab95fb25d6a20356ec779060600160405180910390a150505050565b6000546001600160a01b031633146108fb5760405162461bcd60e51b815260040161018f90610a3a565b6001600160a01b0381166109605760405162461bcd60e51b815260206004820152602660248201527f4f776e61626c653a206e6577206f776e657220697320746865207a65726f206160448201526564647265737360d01b606482015260840161018f565b6109698161096c565b50565b600080546001600160a01b038381166001600160a01b0319831681178455604051919092169283917f8be0079c531659141344cd1fd0a4f28419497f9722a3daafe3b4186f6b6457e09190a35050565b6000602082840312156109cd578081fd5b81356001600160a01b03811681146109e3578182fd5b9392505050565b6000602082840312156109fb578081fd5b815180151581146109e3578182fd5b600060208284031215610a1b578081fd5b5035919050565b600060208284031215610a33578081fd5b5051919050565b6020808252818101527f4f776e61626c653a2063616c6c6572206973206e6f7420746865206f776e6572604082015260600190565b600082610a8a57634e487b7160e01b81526012600452602481fd5b500490565b6000816000190483118215151615610ab557634e487b7160e01b81526011600452602481fd5b50029056fea264697066735822122082635e5ffb7c8db0742959ba6a2cce6546087e16555638a0cc5c35b500d6992a64736f6c63430008040033",
  "linkReferences": {},
  "deployedLinkReferences": {}
}